{
  "contractName": "ip4",
  "abi": [
    {
      "inputs": [],
      "payable": false,
      "stateMutability": "nonpayable",
      "type": "constructor"
    },
    {
      "constant": false,
      "inputs": [
        {
          "internalType": "string",
          "name": "ip",
          "type": "string"
        }
      ],
      "name": "set_ip",
      "outputs": [],
      "payable": false,
      "stateMutability": "nonpayable",
      "type": "function"
    },
    {
      "constant": false,
      "inputs": [
        {
          "internalType": "address",
          "name": "add",
          "type": "address"
        }
      ],
      "name": "delete_ip",
      "outputs": [],
      "payable": false,
      "stateMutability": "nonpayable",
      "type": "function"
    },
    {
      "constant": true,
      "inputs": [
        {
          "internalType": "address",
          "name": "addr",
          "type": "address"
        }
      ],
      "name": "get_ip",
      "outputs": [
        {
          "internalType": "string",
          "name": "",
          "type": "string"
        }
      ],
      "payable": false,
      "stateMutability": "view",
      "type": "function"
    }
  ],
  "bytecode": "0x608060405234801561001057600080fd5b506040518060400160405280600981526020017f3132372e302e302e3200000000000000000000000000000000000000000000008152506000803373ffffffffffffffffffffffffffffffffffffffff1673ffffffffffffffffffffffffffffffffffffffff168152602001908152602001600020908051906020019061009892919061009e565b50610143565b828054600181600116156101000203166002900490600052602060002090601f016020900481019282601f106100df57805160ff191683800117855561010d565b8280016001018555821561010d579182015b8281111561010c5782518255916020019190600101906100f1565b5b50905061011a919061011e565b5090565b61014091905b8082111561013c576000816000905550600101610124565b5090565b90565b6104a7806101526000396000f3fe608060405234801561001057600080fd5b50600436106100415760003560e01c80633f21367f14610046578063f3472cbd14610103578063f4221f1e14610147575b600080fd5b6100886004803603602081101561005c57600080fd5b81019080803573ffffffffffffffffffffffffffffffffffffffff169060200190929190505050610202565b6040518080602001828103825283818151815260200191508051906020019080838360005b838110156100c85780820151818401526020810190506100ad565b50505050905090810190601f1680156100f55780820380516001836020036101000a031916815260200191505b509250505060405180910390f35b6101456004803603602081101561011957600080fd5b81019080803573ffffffffffffffffffffffffffffffffffffffff1690602001909291905050506102e2565b005b6102006004803603602081101561015d57600080fd5b810190808035906020019064010000000081111561017a57600080fd5b82018360208201111561018c57600080fd5b803590602001918460018302840111640100000000831117156101ae57600080fd5b91908080601f016020809104026020016040519081016040528093929190818152602001838380828437600081840152601f19601f82011690508083019250505050505050919291929050505061032f565b005b60606000808373ffffffffffffffffffffffffffffffffffffffff1673ffffffffffffffffffffffffffffffffffffffff1681526020019081526020016000208054600181600116156101000203166002900480601f0160208091040260200160405190810160405280929190818152602001828054600181600116156101000203166002900480156102d65780601f106102ab576101008083540402835291602001916102d6565b820191906000526020600020905b8154815290600101906020018083116102b957829003601f168201915b50505050509050919050565b6000808273ffffffffffffffffffffffffffffffffffffffff1673ffffffffffffffffffffffffffffffffffffffff168152602001908152602001600020600061032c9190610385565b50565b806000803373ffffffffffffffffffffffffffffffffffffffff1673ffffffffffffffffffffffffffffffffffffffff16815260200190815260200160002090805190602001906103819291906103cd565b5050565b50805460018160011615610100020316600290046000825580601f106103ab57506103ca565b601f0160209004906000526020600020908101906103c9919061044d565b5b50565b828054600181600116156101000203166002900490600052602060002090601f016020900481019282601f1061040e57805160ff191683800117855561043c565b8280016001018555821561043c579182015b8281111561043b578251825591602001919060010190610420565b5b509050610449919061044d565b5090565b61046f91905b8082111561046b576000816000905550600101610453565b5090565b9056fea265627a7a723158203dc99e4d0b7ad9c3352a04afded2264d2efdd4bef088b16e35020d3e10528d5c64736f6c63430005100032",
  "source": "pragma solidity >=0.4.21 <0.7.0;\r\n\r\ncontract ip4 {\r\n\r\n    mapping (address => string) ips;\r\n\r\n    constructor() public{\r\n        ips[msg.sender]= \"127.0.0.2\";\r\n    }\r\n\r\n    \r\n    function set_ip(string memory ip) public {\r\n        ips[msg.sender] = ip;\r\n    }\r\n\r\n    function delete_ip(address add) public {\r\n        delete ips[add];\r\n    }\r\n\r\n    function get_ip(address addr) public view returns (string memory)  {\r\n        return ips[addr];\r\n    }\r\n}",
  "sourcePath": "C:/Users/Ivandy/Desktop/blockchain/ivangivt new/contracts/ip4.sol",
  "compiler": {
    "name": "solc",
    "version": "0.5.16+commit.9c3226ce.Emscripten.clang"
  },
  "schemaVersion": "3.2.3",
  "updatedAt": "2020-08-10T13:08:46.159Z",
  "networkType": "ethereum",
  "devdoc": {
    "methods": {}
  },
  "userdoc": {
    "methods": {}
  }
}